{
  "contractName": "Coin",
  "abi": [
    {
      "inputs": [],
      "stateMutability": "nonpayable",
      "type": "constructor"
    },
    {
      "inputs": [
        {
          "internalType": "uint256",
          "name": "requested",
          "type": "uint256"
        },
        {
          "internalType": "uint256",
          "name": "available",
          "type": "uint256"
        }
      ],
      "name": "InsufficientBalance",
      "type": "error"
    },
    {
      "anonymous": false,
      "inputs": [
        {
          "indexed": false,
          "internalType": "address",
          "name": "from",
          "type": "address"
        },
        {
          "indexed": false,
          "internalType": "address",
          "name": "to",
          "type": "address"
        },
        {
          "indexed": false,
          "internalType": "uint256",
          "name": "amount",
          "type": "uint256"
        }
      ],
      "name": "Sent",
      "type": "event"
    },
    {
      "inputs": [
        {
          "internalType": "address",
          "name": "",
          "type": "address"
        }
      ],
      "name": "balances",
      "outputs": [
        {
          "internalType": "uint256",
          "name": "",
          "type": "uint256"
        }
      ],
      "stateMutability": "view",
      "type": "function"
    },
    {
      "inputs": [],
      "name": "minter",
      "outputs": [
        {
          "internalType": "address",
          "name": "",
          "type": "address"
        }
      ],
      "stateMutability": "view",
      "type": "function"
    },
    {
      "inputs": [
        {
          "internalType": "address",
          "name": "receiver",
          "type": "address"
        },
        {
          "internalType": "uint256",
          "name": "amount",
          "type": "uint256"
        }
      ],
      "name": "mint",
      "outputs": [],
      "stateMutability": "nonpayable",
      "type": "function"
    },
    {
      "inputs": [
        {
          "internalType": "address",
          "name": "receiver",
          "type": "address"
        },
        {
          "internalType": "uint256",
          "name": "amount",
          "type": "uint256"
        }
      ],
      "name": "send",
      "outputs": [],
      "stateMutability": "nonpayable",
      "type": "function"
    }
  ],
  "bytecode": "0x608060405234801561000f575f80fd5b50335f806101000a81548173ffffffffffffffffffffffffffffffffffffffff021916908373ffffffffffffffffffffffffffffffffffffffff1602179055506105ce8061005c5f395ff3fe608060405234801561000f575f80fd5b506004361061004a575f3560e01c8063075461721461004e57806327e235e31461006c57806340c10f191461009c578063d0679d34146100b8575b5f80fd5b6100566100d4565b604051610063919061039e565b60405180910390f35b610086600480360381019061008191906103e5565b6100f7565b6040516100939190610428565b60405180910390f35b6100b660048036038101906100b1919061046b565b61010c565b005b6100d260048036038101906100cd919061046b565b6101b9565b005b5f8054906101000a900473ffffffffffffffffffffffffffffffffffffffff1681565b6001602052805f5260405f205f915090505481565b5f8054906101000a900473ffffffffffffffffffffffffffffffffffffffff1673ffffffffffffffffffffffffffffffffffffffff163373ffffffffffffffffffffffffffffffffffffffff1614610162575f80fd5b8060015f8473ffffffffffffffffffffffffffffffffffffffff1673ffffffffffffffffffffffffffffffffffffffff1681526020019081526020015f205f8282546101ae91906104d6565b925050819055505050565b60015f3373ffffffffffffffffffffffffffffffffffffffff1673ffffffffffffffffffffffffffffffffffffffff1681526020019081526020015f205481111561027a578060015f3373ffffffffffffffffffffffffffffffffffffffff1673ffffffffffffffffffffffffffffffffffffffff1681526020019081526020015f20546040517fcf479181000000000000000000000000000000000000000000000000000000008152600401610271929190610509565b60405180910390fd5b8060015f3373ffffffffffffffffffffffffffffffffffffffff1673ffffffffffffffffffffffffffffffffffffffff1681526020019081526020015f205f8282546102c69190610530565b925050819055508060015f8473ffffffffffffffffffffffffffffffffffffffff1673ffffffffffffffffffffffffffffffffffffffff1681526020019081526020015f205f82825461031991906104d6565b925050819055507f3990db2d31862302a685e8086b5755072a6e2b5b780af1ee81ece35ee3cd334533838360405161035393929190610563565b60405180910390a15050565b5f73ffffffffffffffffffffffffffffffffffffffff82169050919050565b5f6103888261035f565b9050919050565b6103988161037e565b82525050565b5f6020820190506103b15f83018461038f565b92915050565b5f80fd5b6103c48161037e565b81146103ce575f80fd5b50565b5f813590506103df816103bb565b92915050565b5f602082840312156103fa576103f96103b7565b5b5f610407848285016103d1565b91505092915050565b5f819050919050565b61042281610410565b82525050565b5f60208201905061043b5f830184610419565b92915050565b61044a81610410565b8114610454575f80fd5b50565b5f8135905061046581610441565b92915050565b5f8060408385031215610481576104806103b7565b5b5f61048e858286016103d1565b925050602061049f85828601610457565b9150509250929050565b7f4e487b71000000000000000000000000000000000000000000000000000000005f52601160045260245ffd5b5f6104e082610410565b91506104eb83610410565b9250828201905080821115610503576105026104a9565b5b92915050565b5f60408201905061051c5f830185610419565b6105296020830184610419565b9392505050565b5f61053a82610410565b915061054583610410565b925082820390508181111561055d5761055c6104a9565b5b92915050565b5f6060820190506105765f83018661038f565b610583602083018561038f565b6105906040830184610419565b94935050505056fea2646970667358221220c6de828bc23e33fa13441a84eb906bd4054e55fcc09df339c0d7dfaa8faefac864736f6c63430008150033",
  "immutableReferences": {},
  "source": "// SPDX-License-Identifier: GPL-3.0\npragma solidity ^0.8.19;\n\ncontract Coin {\n    // The keyword \"public\" makes variables\n    // accessible from other contracts\n    address public minter;\n    mapping(address => uint) public balances;\n\n    // Events allow clients to react to specific\n    // contract changes you declare\n    event Sent(address from, address to, uint amount);\n\n    // Constructor code is only run when the contract\n    // is created\n    constructor() {\n        minter = msg.sender;\n    }\n\n    // Sends an amount of newly created coins to an address\n    // Can only be called by the contract creator\n    function mint(address receiver, uint amount) public {\n        require(msg.sender == minter);\n        balances[receiver] += amount;\n    }\n\n    // Errors allow you to provide information about\n    // why an operation failed. They are returned\n    // to the caller of the function.\n    error InsufficientBalance(uint requested, uint available);\n\n    // Sends an amount of existing coins\n    // from any caller to an address\n    function send(address receiver, uint amount) public {\n        if (amount > balances[msg.sender])\n            revert InsufficientBalance({\n                requested: amount,\n                available: balances[msg.sender]\n            });\n        balances[msg.sender] -= amount;\n        balances[receiver] += amount;\n        emit Sent(msg.sender, receiver, amount);\n    }\n}\n",
  "sourcePath": "/Users/apple/Coded/Topics/Solidity/contracts/coin.sol",
  "compiler": {
    "name": "solc",
    "version": "0.8.21+commit.d9974bed.Emscripten.clang"
  },
  "schemaVersion": "3.4.15",
  "updatedAt": "2023-09-03T09:14:15.573Z",
  "devdoc": {
    "kind": "dev",
    "methods": {},
    "version": 1
  },
  "userdoc": {
    "kind": "user",
    "methods": {},
    "version": 1
  }
}