{
    "contractName": "HelloWorld",
    "abi": [
        {
            "inputs": [],
            "name": "get",
            "outputs": [
                {
                    "internalType": "string",
                    "name": "",
                    "type": "string"
                }
            ],
            "stateMutability": "pure",
            "type": "function"
        }
    ],
    "bytecode": "608060405234801561001057600080fd5b5060e78061001f6000396000f3fe6080604052348015600f57600080fd5b506004361060285760003560e01c80636d4ce63c14602d575b600080fd5b604080518082018252600f81526e48656c6c6f20436f6e74726163747360881b60208201529051605c91906065565b60405180910390f35b600060208083528351808285015260005b818110156090578581018301518582016040015282016076565b506000604082860101526040601f19601f830116850101925050509291505056fea2646970667358221220a22a4f77b76b9ddd6f86d6f11c4f4636968afa624b21d9dca0375a6a326422aa64736f6c63430008130033",
    "sourcePath": "/Users/apple/Coded/Topics/Solidity/contracts/HelloWorld.sol",
    "compiler": {
        "name": "solc",
        "version": "0.8.19+commit.7dd6d404"
    },
    "functionHashes": {
        "get()": "6d4ce63c"
    },
    "gasEstimates": {
        "creation": {
            "codeDepositCost": "46200",
            "executionCost": "99",
            "totalCost": "46299"
        },
        "external": {
            "get()": "infinite"
        }
    }
}